{
  "_format": "hh-sol-artifact-1",
  "contractName": "ForesightMarket",
  "sourceName": "contracts/ForesightMarket.sol",
  "abi": [
    {
      "inputs": [
        {
          "internalType": "address",
          "name": "_usdtToken",
          "type": "address"
        }
      ],
      "stateMutability": "nonpayable",
      "type": "constructor"
    },
    {
      "anonymous": false,
      "inputs": [
        {
          "indexed": true,
          "internalType": "uint256",
          "name": "id",
          "type": "uint256"
        },
        {
          "indexed": false,
          "internalType": "string",
          "name": "question",
          "type": "string"
        },
        {
          "indexed": false,
          "internalType": "address",
          "name": "creator",
          "type": "address"
        },
        {
          "indexed": false,
          "internalType": "uint256",
          "name": "closesAt",
          "type": "uint256"
        }
      ],
      "name": "MarketCreated",
      "type": "event"
    },
    {
      "anonymous": false,
      "inputs": [
        {
          "indexed": true,
          "internalType": "uint256",
          "name": "marketId",
          "type": "uint256"
        },
        {
          "indexed": false,
          "internalType": "enum ForesightMarket.Side",
          "name": "result",
          "type": "uint8"
        }
      ],
      "name": "MarketResolved",
      "type": "event"
    },
    {
      "anonymous": false,
      "inputs": [
        {
          "indexed": true,
          "internalType": "uint256",
          "name": "marketId",
          "type": "uint256"
        },
        {
          "indexed": true,
          "internalType": "address",
          "name": "user",
          "type": "address"
        },
        {
          "indexed": false,
          "internalType": "enum ForesightMarket.Side",
          "name": "side",
          "type": "uint8"
        },
        {
          "indexed": false,
          "internalType": "uint256",
          "name": "amount",
          "type": "uint256"
        }
      ],
      "name": "PredictionPlaced",
      "type": "event"
    },
    {
      "anonymous": false,
      "inputs": [
        {
          "indexed": true,
          "internalType": "uint256",
          "name": "marketId",
          "type": "uint256"
        },
        {
          "indexed": true,
          "internalType": "address",
          "name": "user",
          "type": "address"
        },
        {
          "indexed": false,
          "internalType": "uint256",
          "name": "amount",
          "type": "uint256"
        }
      ],
      "name": "WinningsClaimed",
      "type": "event"
    },
    {
      "inputs": [
        {
          "internalType": "uint256",
          "name": "marketId",
          "type": "uint256"
        }
      ],
      "name": "claimRefund",
      "outputs": [],
      "stateMutability": "nonpayable",
      "type": "function"
    },
    {
      "inputs": [
        {
          "internalType": "uint256",
          "name": "marketId",
          "type": "uint256"
        }
      ],
      "name": "claimWinnings",
      "outputs": [],
      "stateMutability": "nonpayable",
      "type": "function"
    },
    {
      "inputs": [
        {
          "internalType": "string",
          "name": "question",
          "type": "string"
        },
        {
          "internalType": "uint256",
          "name": "closesAt",
          "type": "uint256"
        }
      ],
      "name": "createMarket",
      "outputs": [
        {
          "internalType": "uint256",
          "name": "",
          "type": "uint256"
        }
      ],
      "stateMutability": "nonpayable",
      "type": "function"
    },
    {
      "inputs": [],
      "name": "creatorFee",
      "outputs": [
        {
          "internalType": "uint256",
          "name": "",
          "type": "uint256"
        }
      ],
      "stateMutability": "view",
      "type": "function"
    },
    {
      "inputs": [
        {
          "internalType": "uint256",
          "name": "marketId",
          "type": "uint256"
        }
      ],
      "name": "getMarket",
      "outputs": [
        {
          "internalType": "string",
          "name": "question",
          "type": "string"
        },
        {
          "internalType": "address",
          "name": "creator",
          "type": "address"
        },
        {
          "internalType": "uint256",
          "name": "poolYes",
          "type": "uint256"
        },
        {
          "internalType": "uint256",
          "name": "poolNo",
          "type": "uint256"
        },
        {
          "internalType": "uint256",
          "name": "closesAt",
          "type": "uint256"
        },
        {
          "internalType": "uint8",
          "name": "status",
          "type": "uint8"
        },
        {
          "internalType": "bool",
          "name": "resultSet",
          "type": "bool"
        },
        {
          "internalType": "uint8",
          "name": "result",
          "type": "uint8"
        }
      ],
      "stateMutability": "view",
      "type": "function"
    },
    {
      "inputs": [
        {
          "internalType": "uint256",
          "name": "marketId",
          "type": "uint256"
        },
        {
          "internalType": "address",
          "name": "user",
          "type": "address"
        }
      ],
      "name": "getPrediction",
      "outputs": [
        {
          "internalType": "uint8",
          "name": "side",
          "type": "uint8"
        },
        {
          "internalType": "uint256",
          "name": "amount",
          "type": "uint256"
        },
        {
          "internalType": "bool",
          "name": "claimed",
          "type": "bool"
        }
      ],
      "stateMutability": "view",
      "type": "function"
    },
    {
      "inputs": [],
      "name": "marketCount",
      "outputs": [
        {
          "internalType": "uint256",
          "name": "",
          "type": "uint256"
        }
      ],
      "stateMutability": "view",
      "type": "function"
    },
    {
      "inputs": [
        {
          "internalType": "uint256",
          "name": "",
          "type": "uint256"
        }
      ],
      "name": "markets",
      "outputs": [
        {
          "internalType": "string",
          "name": "question",
          "type": "string"
        },
        {
          "internalType": "address",
          "name": "creator",
          "type": "address"
        },
        {
          "internalType": "uint256",
          "name": "poolYes",
          "type": "uint256"
        },
        {
          "internalType": "uint256",
          "name": "poolNo",
          "type": "uint256"
        },
        {
          "internalType": "uint256",
          "name": "closesAt",
          "type": "uint256"
        },
        {
          "internalType": "enum ForesightMarket.Status",
          "name": "status",
          "type": "uint8"
        },
        {
          "internalType": "enum ForesightMarket.Side",
          "name": "result",
          "type": "uint8"
        },
        {
          "internalType": "bool",
          "name": "resultSet",
          "type": "bool"
        }
      ],
      "stateMutability": "view",
      "type": "function"
    },
    {
      "inputs": [],
      "name": "owner",
      "outputs": [
        {
          "internalType": "address",
          "name": "",
          "type": "address"
        }
      ],
      "stateMutability": "view",
      "type": "function"
    },
    {
      "inputs": [],
      "name": "platformFee",
      "outputs": [
        {
          "internalType": "uint256",
          "name": "",
          "type": "uint256"
        }
      ],
      "stateMutability": "view",
      "type": "function"
    },
    {
      "inputs": [
        {
          "internalType": "uint256",
          "name": "marketId",
          "type": "uint256"
        },
        {
          "internalType": "enum ForesightMarket.Side",
          "name": "side",
          "type": "uint8"
        },
        {
          "internalType": "uint256",
          "name": "amount",
          "type": "uint256"
        }
      ],
      "name": "predict",
      "outputs": [],
      "stateMutability": "nonpayable",
      "type": "function"
    },
    {
      "inputs": [
        {
          "internalType": "uint256",
          "name": "",
          "type": "uint256"
        },
        {
          "internalType": "address",
          "name": "",
          "type": "address"
        }
      ],
      "name": "predictions",
      "outputs": [
        {
          "internalType": "enum ForesightMarket.Side",
          "name": "side",
          "type": "uint8"
        },
        {
          "internalType": "uint256",
          "name": "amount",
          "type": "uint256"
        },
        {
          "internalType": "bool",
          "name": "claimed",
          "type": "bool"
        }
      ],
      "stateMutability": "view",
      "type": "function"
    },
    {
      "inputs": [
        {
          "internalType": "uint256",
          "name": "marketId",
          "type": "uint256"
        },
        {
          "internalType": "enum ForesightMarket.Side",
          "name": "result",
          "type": "uint8"
        }
      ],
      "name": "resolveMarket",
      "outputs": [],
      "stateMutability": "nonpayable",
      "type": "function"
    },
    {
      "inputs": [],
      "name": "usdtToken",
      "outputs": [
        {
          "internalType": "address",
          "name": "",
          "type": "address"
        }
      ],
      "stateMutability": "view",
      "type": "function"
    }
  ],
  "bytecode": "0x60806040526002805560016003553480156200001a57600080fd5b5060405162002fc238038062002fc2833981810160405281019062000040919062000132565b336000806101000a81548173ffffffffffffffffffffffffffffffffffffffff021916908373ffffffffffffffffffffffffffffffffffffffff16021790555080600160006101000a81548173ffffffffffffffffffffffffffffffffffffffff021916908373ffffffffffffffffffffffffffffffffffffffff1602179055505062000164565b600080fd5b600073ffffffffffffffffffffffffffffffffffffffff82169050919050565b6000620000fa82620000cd565b9050919050565b6200010c81620000ed565b81146200011857600080fd5b50565b6000815190506200012c8162000101565b92915050565b6000602082840312156200014b576200014a620000c8565b5b60006200015b848285016200011b565b91505092915050565b612e4e80620001746000396000f3fe608060405234801561001057600080fd5b50600436106100ea5760003560e01c80639bd0f27a1161008c578063df55406e11610066578063df55406e14610268578063e88958dc14610284578063eb44fdd3146102a2578063ec979082146102d9576100ea565b80639bd0f27a146101e1578063a98ad46c14610213578063b1283e7714610231576100ea565b8063677bd9ff116100c8578063677bd9ff14610145578063883c84c1146101615780638da5cb5b1461019157806392b108d0146101af576100ea565b806326232a2e146100ef57806350ae97161461010d5780635b7baf6414610129575b600080fd5b6100f76102f7565b6040516101049190611a26565b60405180910390f35b61012760048036038101906101229190611a9c565b6102fd565b005b610143600480360381019061013e9190611aef565b610771565b005b61015f600480360381019061015a9190611aef565b610a5f565b005b61017b60048036038101906101769190611b81565b610e4d565b6040516101889190611a26565b60405180910390f35b6101996111f5565b6040516101a69190611c22565b60405180910390f35b6101c960048036038101906101c49190611c69565b611219565b6040516101d893929190611d3b565b60405180910390f35b6101fb60048036038101906101f69190611c69565b61126a565b60405161020a93929190611d8e565b60405180910390f35b61021b61130b565b6040516102289190611c22565b60405180910390f35b61024b60048036038101906102469190611aef565b611331565b60405161025f989796959493929190611e9d565b60405180910390f35b610282600480360381019061027d9190611f22565b611448565b005b61028c6118a4565b6040516102999190611a26565b60405180910390f35b6102bc60048036038101906102b79190611aef565b6118aa565b6040516102d0989796959493929190611f62565b60405180910390f35b6102e1611a07565b6040516102ee9190611a26565b60405180910390f35b60025481565b60006005600085815260200190815260200160002090506000600281111561032857610327611ca9565b5b8160050160009054906101000a900460ff16600281111561034c5761034b611ca9565b5b1461038c576040517f08c379a000000000000000000000000000000000000000000000000000000000815260040161038390612033565b60405180910390fd5b806004015442106103d2576040517f08c379a00000000000000000000000000000000000000000000000000000000081526004016103c99061209f565b60405180910390fd5b620186a0821015610418576040517f08c379a000000000000000000000000000000000000000000000000000000000815260040161040f9061210b565b60405180910390fd5b6298968082111561045e576040517f08c379a000000000000000000000000000000000000000000000000000000000815260040161045590612177565b60405180910390fd5b60006006600086815260200190815260200160002060003373ffffffffffffffffffffffffffffffffffffffff1673ffffffffffffffffffffffffffffffffffffffff16815260200190815260200160002060010154146104f4576040517f08c379a00000000000000000000000000000000000000000000000000000000081526004016104eb906121e3565b60405180910390fd5b600160009054906101000a900473ffffffffffffffffffffffffffffffffffffffff1673ffffffffffffffffffffffffffffffffffffffff166323b872dd3330856040518463ffffffff1660e01b815260040161055393929190612203565b6020604051808303816000875af1158015610572573d6000803e3d6000fd5b505050506040513d601f19601f820116820180604052508101906105969190612266565b6105d5576040517f08c379a00000000000000000000000000000000000000000000000000000000081526004016105cc906122df565b60405180910390fd5b60405180606001604052808460018111156105f3576105f2611ca9565b5b8152602001838152602001600015158152506006600086815260200190815260200160002060003373ffffffffffffffffffffffffffffffffffffffff1673ffffffffffffffffffffffffffffffffffffffff16815260200190815260200160002060008201518160000160006101000a81548160ff021916908360018111156106805761067f611ca9565b5b02179055506020820151816001015560408201518160020160006101000a81548160ff021916908315150217905550905050600060018111156106c6576106c5611ca9565b5b8360018111156106d9576106d8611ca9565b5b036106fe57818160020160008282546106f2919061232e565b9250508190555061071a565b81816003016000828254610712919061232e565b925050819055505b3373ffffffffffffffffffffffffffffffffffffffff16847f07b75caee18334b4449f5d17757762cdceb0f9fd39ea0f000c175f359abbcc348585604051610763929190612362565b60405180910390a350505050565b60006005600083815260200190815260200160002090508060050160029054906101000a900460ff166107d9576040517f08c379a00000000000000000000000000000000000000000000000000000000081526004016107d0906123d7565b60405180910390fd5b60008060018111156107ee576107ed611ca9565b5b8260050160019054906101000a900460ff16600181111561081257610811611ca9565b5b14610821578160020154610827565b81600301545b90506000811461086c576040517f08c379a000000000000000000000000000000000000000000000000000000000815260040161086390612469565b60405180910390fd5b60006006600085815260200190815260200160002060003373ffffffffffffffffffffffffffffffffffffffff1673ffffffffffffffffffffffffffffffffffffffff16815260200190815260200160002090506000816001015411610907576040517f08c379a00000000000000000000000000000000000000000000000000000000081526004016108fe906124d5565b60405180910390fd5b8060020160009054906101000a900460ff1615610959576040517f08c379a000000000000000000000000000000000000000000000000000000000815260040161095090612541565b60405180910390fd5b60018160020160006101000a81548160ff021916908315150217905550600160009054906101000a900473ffffffffffffffffffffffffffffffffffffffff1673ffffffffffffffffffffffffffffffffffffffff1663a9059cbb3383600101546040518363ffffffff1660e01b81526004016109d7929190612561565b6020604051808303816000875af11580156109f6573d6000803e3d6000fd5b505050506040513d601f19601f82011682018060405250810190610a1a9190612266565b610a59576040517f08c379a0000000000000000000000000000000000000000000000000000000008152600401610a50906125d6565b60405180910390fd5b50505050565b60006005600083815260200190815260200160002090508060050160029054906101000a900460ff16610ac7576040517f08c379a0000000000000000000000000000000000000000000000000000000008152600401610abe906123d7565b60405180910390fd5b60006006600084815260200190815260200160002060003373ffffffffffffffffffffffffffffffffffffffff1673ffffffffffffffffffffffffffffffffffffffff16815260200190815260200160002090506000816001015411610b62576040517f08c379a0000000000000000000000000000000000000000000000000000000008152600401610b59906124d5565b60405180910390fd5b8060020160009054906101000a900460ff1615610bb4576040517f08c379a0000000000000000000000000000000000000000000000000000000008152600401610bab90612541565b60405180910390fd5b8160050160019054906101000a900460ff166001811115610bd857610bd7611ca9565b5b8160000160009054906101000a900460ff166001811115610bfc57610bfb611ca9565b5b14610c3c576040517f08c379a0000000000000000000000000000000000000000000000000000000008152600401610c3390612642565b60405180910390fd5b60018160020160006101000a81548160ff021916908315150217905550600082600301548360020154610c6f919061232e565b905060006064600354600254610c85919061232e565b83610c909190612662565b610c9a91906126d3565b82610ca59190612704565b90506000806001811115610cbc57610cbb611ca9565b5b8560050160019054906101000a900460ff166001811115610ce057610cdf611ca9565b5b14610cef578460030154610cf5565b84600201545b9050600081838660010154610d0a9190612662565b610d1491906126d3565b9050600160009054906101000a900473ffffffffffffffffffffffffffffffffffffffff1673ffffffffffffffffffffffffffffffffffffffff1663a9059cbb33836040518363ffffffff1660e01b8152600401610d73929190612561565b6020604051808303816000875af1158015610d92573d6000803e3d6000fd5b505050506040513d601f19601f82011682018060405250810190610db69190612266565b610df5576040517f08c379a0000000000000000000000000000000000000000000000000000000008152600401610dec90612784565b60405180910390fd5b3373ffffffffffffffffffffffffffffffffffffffff16877f5380cf6fe903b40c6d5a9e0dfbca2f3a423f0a21520b4d5947ed5169bdba946d83604051610e3c9190611a26565b60405180910390a350505050505050565b6000428211610e91576040517f08c379a0000000000000000000000000000000000000000000000000000000008152600401610e88906127f0565b60405180910390fd5b60008484905011610ed7576040517f08c379a0000000000000000000000000000000000000000000000000000000008152600401610ece9061285c565b60405180910390fd5b6000620f42409050600160009054906101000a900473ffffffffffffffffffffffffffffffffffffffff1673ffffffffffffffffffffffffffffffffffffffff166323b872dd3330846040518463ffffffff1660e01b8152600401610f3e93929190612203565b6020604051808303816000875af1158015610f5d573d6000803e3d6000fd5b505050506040513d601f19601f82011682018060405250810190610f819190612266565b610fc0576040517f08c379a0000000000000000000000000000000000000000000000000000000008152600401610fb7906128c8565b60405180910390fd5b600060046000815480929190610fd5906128e8565b91905055905060405180610100016040528087878080601f016020809104026020016040519081016040528093929190818152602001838380828437600081840152601f19601f8201169050808301925050505050505081526020013373ffffffffffffffffffffffffffffffffffffffff16815260200160008152602001600081526020018581526020016000600281111561107557611074611ca9565b5b81526020016000600181111561108e5761108d611ca9565b5b8152602001600015158152506005600083815260200190815260200160002060008201518160000190816110c29190612b6b565b5060208201518160010160006101000a81548173ffffffffffffffffffffffffffffffffffffffff021916908373ffffffffffffffffffffffffffffffffffffffff16021790555060408201518160020155606082015181600301556080820151816004015560a08201518160050160006101000a81548160ff0219169083600281111561115357611152611ca9565b5b021790555060c08201518160050160016101000a81548160ff0219169083600181111561118357611182611ca9565b5b021790555060e08201518160050160026101000a81548160ff021916908315150217905550905050807f069da8c9710c1600001ae111f110050f586b7fcd73d420b5eb03747f67e86d0d878733886040516111e19493929190612c79565b60405180910390a280925050509392505050565b60008054906101000a900473ffffffffffffffffffffffffffffffffffffffff1681565b6006602052816000526040600020602052806000526040600020600091509150508060000160009054906101000a900460ff16908060010154908060020160009054906101000a900460ff16905083565b6000806000806006600087815260200190815260200160002060008673ffffffffffffffffffffffffffffffffffffffff1673ffffffffffffffffffffffffffffffffffffffff16815260200190815260200160002090508060000160009054906101000a900460ff1660018111156112e6576112e5611ca9565b5b81600101548260020160009054906101000a900460ff16935093509350509250925092565b600160009054906101000a900473ffffffffffffffffffffffffffffffffffffffff1681565b60056020528060005260406000206000915090508060000180546113549061298e565b80601f01602080910402602001604051908101604052809291908181526020018280546113809061298e565b80156113cd5780601f106113a2576101008083540402835291602001916113cd565b820191906000526020600020905b8154815290600101906020018083116113b057829003601f168201915b5050505050908060010160009054906101000a900473ffffffffffffffffffffffffffffffffffffffff16908060020154908060030154908060040154908060050160009054906101000a900460ff16908060050160019054906101000a900460ff16908060050160029054906101000a900460ff16905088565b60008054906101000a900473ffffffffffffffffffffffffffffffffffffffff1673ffffffffffffffffffffffffffffffffffffffff163373ffffffffffffffffffffffffffffffffffffffff16146114d6576040517f08c379a00000000000000000000000000000000000000000000000000000000081526004016114cd90612d05565b60405180910390fd5b60006005600084815260200190815260200160002090506000600281111561150157611500611ca9565b5b8160050160009054906101000a900460ff16600281111561152557611524611ca9565b5b14611565576040517f08c379a000000000000000000000000000000000000000000000000000000000815260040161155c90612d71565b60405180910390fd5b60008054906101000a900473ffffffffffffffffffffffffffffffffffffffff1673ffffffffffffffffffffffffffffffffffffffff163373ffffffffffffffffffffffffffffffffffffffff16146116005780600401544210156115ff576040517f08c379a00000000000000000000000000000000000000000000000000000000081526004016115f690612ddd565b60405180910390fd5b5b60028160050160006101000a81548160ff0219169083600281111561162857611627611ca9565b5b0217905550818160050160016101000a81548160ff0219169083600181111561165457611653611ca9565b5b021790555060018160050160026101000a81548160ff02191690831515021790555060008160030154826002015461168c919061232e565b905060006064600254836116a09190612662565b6116aa91906126d3565b905060006064600354846116be9190612662565b6116c891906126d3565b9050600082111561179557600160009054906101000a900473ffffffffffffffffffffffffffffffffffffffff1673ffffffffffffffffffffffffffffffffffffffff1663a9059cbb60008054906101000a900473ffffffffffffffffffffffffffffffffffffffff16846040518363ffffffff1660e01b8152600401611750929190612561565b6020604051808303816000875af115801561176f573d6000803e3d6000fd5b505050506040513d601f19601f820116820180604052508101906117939190612266565b505b600081111561186457600160009054906101000a900473ffffffffffffffffffffffffffffffffffffffff1673ffffffffffffffffffffffffffffffffffffffff1663a9059cbb8560010160009054906101000a900473ffffffffffffffffffffffffffffffffffffffff16836040518363ffffffff1660e01b815260040161181f929190612561565b6020604051808303816000875af115801561183e573d6000803e3d6000fd5b505050506040513d601f19601f820116820180604052508101906118629190612266565b505b857f739f283563fb51ab6b89ee95d937b2e63a6cfcb83c385dbebb629f9d97bd43e6866040516118949190612dfd565b60405180910390a2505050505050565b60035481565b6060600080600080600080600080600560008b81526020019081526020016000209050806000018160010160009054906101000a900473ffffffffffffffffffffffffffffffffffffffff168260020154836003015484600401548560050160009054906101000a900460ff16600281111561192957611928611ca9565b5b8660050160029054906101000a900460ff168760050160019054906101000a900460ff16600181111561195f5761195e611ca9565b5b87805461196b9061298e565b80601f01602080910402602001604051908101604052809291908181526020018280546119979061298e565b80156119e45780601f106119b9576101008083540402835291602001916119e4565b820191906000526020600020905b8154815290600101906020018083116119c757829003601f168201915b505050505097509850985098509850985098509850985050919395975091939597565b60045481565b6000819050919050565b611a2081611a0d565b82525050565b6000602082019050611a3b6000830184611a17565b92915050565b600080fd5b600080fd5b611a5481611a0d565b8114611a5f57600080fd5b50565b600081359050611a7181611a4b565b92915050565b60028110611a8457600080fd5b50565b600081359050611a9681611a77565b92915050565b600080600060608486031215611ab557611ab4611a41565b5b6000611ac386828701611a62565b9350506020611ad486828701611a87565b9250506040611ae586828701611a62565b9150509250925092565b600060208284031215611b0557611b04611a41565b5b6000611b1384828501611a62565b91505092915050565b600080fd5b600080fd5b600080fd5b60008083601f840112611b4157611b40611b1c565b5b8235905067ffffffffffffffff811115611b5e57611b5d611b21565b5b602083019150836001820283011115611b7a57611b79611b26565b5b9250929050565b600080600060408486031215611b9a57611b99611a41565b5b600084013567ffffffffffffffff811115611bb857611bb7611a46565b5b611bc486828701611b2b565b93509350506020611bd786828701611a62565b9150509250925092565b600073ffffffffffffffffffffffffffffffffffffffff82169050919050565b6000611c0c82611be1565b9050919050565b611c1c81611c01565b82525050565b6000602082019050611c376000830184611c13565b92915050565b611c4681611c01565b8114611c5157600080fd5b50565b600081359050611c6381611c3d565b92915050565b60008060408385031215611c8057611c7f611a41565b5b6000611c8e85828601611a62565b9250506020611c9f85828601611c54565b9150509250929050565b7f4e487b7100000000000000000000000000000000000000000000000000000000600052602160045260246000fd5b60028110611ce957611ce8611ca9565b5b50565b6000819050611cfa82611cd8565b919050565b6000611d0a82611cec565b9050919050565b611d1a81611cff565b82525050565b60008115159050919050565b611d3581611d20565b82525050565b6000606082019050611d506000830186611d11565b611d5d6020830185611a17565b611d6a6040830184611d2c565b949350505050565b600060ff82169050919050565b611d8881611d72565b82525050565b6000606082019050611da36000830186611d7f565b611db06020830185611a17565b611dbd6040830184611d2c565b949350505050565b600081519050919050565b600082825260208201905092915050565b60005b83811015611dff578082015181840152602081019050611de4565b60008484015250505050565b6000601f19601f8301169050919050565b6000611e2782611dc5565b611e318185611dd0565b9350611e41818560208601611de1565b611e4a81611e0b565b840191505092915050565b60038110611e6657611e65611ca9565b5b50565b6000819050611e7782611e55565b919050565b6000611e8782611e69565b9050919050565b611e9781611e7c565b82525050565b6000610100820190508181036000830152611eb8818b611e1c565b9050611ec7602083018a611c13565b611ed46040830189611a17565b611ee16060830188611a17565b611eee6080830187611a17565b611efb60a0830186611e8e565b611f0860c0830185611d11565b611f1560e0830184611d2c565b9998505050505050505050565b60008060408385031215611f3957611f38611a41565b5b6000611f4785828601611a62565b9250506020611f5885828601611a87565b9150509250929050565b6000610100820190508181036000830152611f7d818b611e1c565b9050611f8c602083018a611c13565b611f996040830189611a17565b611fa66060830188611a17565b611fb36080830187611a17565b611fc060a0830186611d7f565b611fcd60c0830185611d2c565b611fda60e0830184611d7f565b9998505050505050505050565b7f4d65726361646f206e6f206162696572746f0000000000000000000000000000600082015250565b600061201d601283611dd0565b915061202882611fe7565b602082019050919050565b6000602082019050818103600083015261204c81612010565b9050919050565b7f4d65726361646f206365727261646f0000000000000000000000000000000000600082015250565b6000612089600f83611dd0565b915061209482612053565b602082019050919050565b600060208201905081810360008301526120b88161207c565b9050919050565b7f4d696e696d6f20302e3120555344540000000000000000000000000000000000600082015250565b60006120f5600f83611dd0565b9150612100826120bf565b602082019050919050565b60006020820190508181036000830152612124816120e8565b9050919050565b7f4d6178696d6f2031302055534454000000000000000000000000000000000000600082015250565b6000612161600e83611dd0565b915061216c8261212b565b602082019050919050565b6000602082019050818103600083015261219081612154565b9050919050565b7f59612061706f7374617374650000000000000000000000000000000000000000600082015250565b60006121cd600c83611dd0565b91506121d882612197565b602082019050919050565b600060208201905081810360008301526121fc816121c0565b9050919050565b60006060820190506122186000830186611c13565b6122256020830185611c13565b6122326040830184611a17565b949350505050565b61224381611d20565b811461224e57600080fd5b50565b6000815190506122608161223a565b92915050565b60006020828403121561227c5761227b611a41565b5b600061228a84828501612251565b91505092915050565b7f46616c6c6f207472616e73666572656e63696100000000000000000000000000600082015250565b60006122c9601383611dd0565b91506122d482612293565b602082019050919050565b600060208201905081810360008301526122f8816122bc565b9050919050565b7f4e487b7100000000000000000000000000000000000000000000000000000000600052601160045260246000fd5b600061233982611a0d565b915061234483611a0d565b925082820190508082111561235c5761235b6122ff565b5b92915050565b60006040820190506123776000830185611d11565b6123846020830184611a17565b9392505050565b7f4d65726361646f206e6f2072657375656c746f00000000000000000000000000600082015250565b60006123c1601383611dd0565b91506123cc8261238b565b602082019050919050565b600060208201905081810360008301526123f0816123b4565b9050919050565b7f486179207065726465646f7265732c2075736120636c61696d57696e6e696e6760008201527f7300000000000000000000000000000000000000000000000000000000000000602082015250565b6000612453602183611dd0565b915061245e826123f7565b604082019050919050565b6000602082019050818103600083015261248281612446565b9050919050565b7f4e6f2061706f7374617374650000000000000000000000000000000000000000600082015250565b60006124bf600c83611dd0565b91506124ca82612489565b602082019050919050565b600060208201905081810360008301526124ee816124b2565b9050919050565b7f5961207265636c616d6173746500000000000000000000000000000000000000600082015250565b600061252b600d83611dd0565b9150612536826124f5565b602082019050919050565b6000602082019050818103600083015261255a8161251e565b9050919050565b60006040820190506125766000830185611c13565b6125836020830184611a17565b9392505050565b7f46616c6c6f207265656d626f6c736f0000000000000000000000000000000000600082015250565b60006125c0600f83611dd0565b91506125cb8261258a565b602082019050919050565b600060208201905081810360008301526125ef816125b3565b9050919050565b7f4e6f2067616e6173746500000000000000000000000000000000000000000000600082015250565b600061262c600a83611dd0565b9150612637826125f6565b602082019050919050565b6000602082019050818103600083015261265b8161261f565b9050919050565b600061266d82611a0d565b915061267883611a0d565b925082820261268681611a0d565b9150828204841483151761269d5761269c6122ff565b5b5092915050565b7f4e487b7100000000000000000000000000000000000000000000000000000000600052601260045260246000fd5b60006126de82611a0d565b91506126e983611a0d565b9250826126f9576126f86126a4565b5b828204905092915050565b600061270f82611a0d565b915061271a83611a0d565b9250828203905081811115612732576127316122ff565b5b92915050565b7f46616c6c6f207061676f00000000000000000000000000000000000000000000600082015250565b600061276e600a83611dd0565b915061277982612738565b602082019050919050565b6000602082019050818103600083015261279d81612761565b9050919050565b7f46656368612064652063696572726520656e20656c2070617361646f00000000600082015250565b60006127da601c83611dd0565b91506127e5826127a4565b602082019050919050565b60006020820190508181036000830152612809816127cd565b9050919050565b7f50726567756e7461207661636961000000000000000000000000000000000000600082015250565b6000612846600e83611dd0565b915061285182612810565b602082019050919050565b6000602082019050818103600083015261287581612839565b9050919050565b7f46616c6c6f206465706f7369746f2063726561646f7200000000000000000000600082015250565b60006128b2601683611dd0565b91506128bd8261287c565b602082019050919050565b600060208201905081810360008301526128e1816128a5565b9050919050565b60006128f382611a0d565b91507fffffffffffffffffffffffffffffffffffffffffffffffffffffffffffffffff8203612925576129246122ff565b5b600182019050919050565b7f4e487b7100000000000000000000000000000000000000000000000000000000600052604160045260246000fd5b7f4e487b7100000000000000000000000000000000000000000000000000000000600052602260045260246000fd5b600060028204905060018216806129a657607f821691505b6020821081036129b9576129b861295f565b5b50919050565b60008190508160005260206000209050919050565b60006020601f8301049050919050565b600082821b905092915050565b600060088302612a217fffffffffffffffffffffffffffffffffffffffffffffffffffffffffffffffff826129e4565b612a2b86836129e4565b95508019841693508086168417925050509392505050565b6000819050919050565b6000612a68612a63612a5e84611a0d565b612a43565b611a0d565b9050919050565b6000819050919050565b612a8283612a4d565b612a96612a8e82612a6f565b8484546129f1565b825550505050565b600090565b612aab612a9e565b612ab6818484612a79565b505050565b5b81811015612ada57612acf600082612aa3565b600181019050612abc565b5050565b601f821115612b1f57612af0816129bf565b612af9846129d4565b81016020851015612b08578190505b612b1c612b14856129d4565b830182612abb565b50505b505050565b600082821c905092915050565b6000612b4260001984600802612b24565b1980831691505092915050565b6000612b5b8383612b31565b9150826002028217905092915050565b612b7482611dc5565b67ffffffffffffffff811115612b8d57612b8c612930565b5b612b97825461298e565b612ba2828285612ade565b600060209050601f831160018114612bd55760008415612bc3578287015190505b612bcd8582612b4f565b865550612c35565b601f198416612be3866129bf565b60005b82811015612c0b57848901518255600182019150602085019450602081019050612be6565b86831015612c285784890151612c24601f891682612b31565b8355505b6001600288020188555050505b505050505050565b82818337600083830152505050565b6000612c588385611dd0565b9350612c65838584612c3d565b612c6e83611e0b565b840190509392505050565b60006060820190508181036000830152612c94818688612c4c565b9050612ca36020830185611c13565b612cb06040830184611a17565b95945050505050565b7f536f6c6f20656c206f776e657200000000000000000000000000000000000000600082015250565b6000612cef600d83611dd0565b9150612cfa82612cb9565b602082019050919050565b60006020820190508181036000830152612d1e81612ce2565b9050919050565b7f4d65726361646f2079612072657375656c746f00000000000000000000000000600082015250565b6000612d5b601383611dd0565b9150612d6682612d25565b602082019050919050565b60006020820190508181036000830152612d8a81612d4e565b9050919050565b7f4d65726361646f2061756e206162696572746f00000000000000000000000000600082015250565b6000612dc7601383611dd0565b9150612dd282612d91565b602082019050919050565b60006020820190508181036000830152612df681612dba565b9050919050565b6000602082019050612e126000830184611d11565b9291505056fea26469706673582212207401b47a8ad69a5c44570ad44996e3c59fdca6025e50e0c811c16ce4cec1c2cf64736f6c63430008180033",
  "linkReferences": {},
  "deployedLinkReferences": {}
}